:020000040800F2
:10000000D00500204501000861250008651D000895
:100010005D250008210200080933000800000000E7
:10002000000000000000000000000000D1250008D2
:100030008D0400080000000063250008992A0008CC
:100040005F0100085F0100085F0100085F01000810
:100050005F0100085F010008110600085F01000849
:100060005F0100085F0100085F0100085F010008F0
:100070005F0100085F0100085F0100085F010008E0
:100080005F0100085F0100085F0100085F010008D0
:100090005F0100085F0100085F0100085F010008C0
:1000A0005F0100085F0100085F0100085F010008B0
:1000B0005F0100085F0100085F0100085F010008A0
:1000C0005F0100085F0100085F0100085F01000890
:1000D0005F0100085F0100085F010008913100081E
:1000E0002D0600085F0100085F0100085F0100089D
:1000F0005F0100085F0100085F0100085F01000860
:100100005F0100085F0100085F0100085F0100084F
:100110005F0100085F0100085F0100085F0100083F
:100120005F0100085F0100085F0100085F0100082F
:10013000DFF80CD000F062F80048004739360008BC
:10014000D00500200648804706480047FEE7FEE746
:10015000FEE7FEE7FEE7FEE7FEE7FEE7FEE7FEE777
:10016000092B000831010008D2B201E000F8012B90
:10017000491EFBD270470022F6E710B513460A4627
:1001800004461946FFF7F0FF204610BD421E12F844
:10019000013F002BFBD111F8013B02F8013B002B82
:1001A000F9D17047421C10F8011B0029FBD1801ABD
:1001B000704710B5002200E0521C835C8C5CA342A7
:1001C00001D1002BF8D1D8B2E1B2401A10BD30B540
:1001D0000B46014600202022012409E021FA02F505
:1001E0009D4205D303FA02F5491B04FA02F528449F
:1001F000151EA2F10102F1DC30BD0000064C074DD6
:1002000006E0E06840F0010394E8070098471034E6
:10021000AC42F6D3FFF790FF1C4A00083C4A0008A6
:1002200000BFFEE72DE9F04105460E4600242846B2
:10023000FFF7B8FF0746A04600BF00BF01F098FDDA
:100240000028FBD017E020480068406C1E49096870
:10025000085C06F808001C480068406C401C00F070
:100260003F0019490968486408F1010800BF01F01E
:100270007FFD0028FBD002F0E3FF295D8842E2D138
:1002800011E0641C02F0F0FFC2B2404608F1010820
:100290003254BC4202D10120BDE8F08100BF01F020
:1002A00067FD0028FBD002F0CBFF295D8842E8D033
:1002B000BC4201D00024C0E7BC4201D10120EBE7E1
:1002C0004FF0FF30E8E700000800002010B50024E0
:1002D000282003F079F940210C4800F055FD58B969
:1002E000502003F071F94021084800F04DFD08B19D
:1002F000012401E04FF0FF3400BF4021034800F02B
:1003000043FD0028F9D1204610BD0000001801402F
:1003100000B585B000BF0F48806940F040000D492E
:1003200088610846806900F04000009000BF00BF6F
:10033000402001900120029003900320049001A925
:10034000054800F081FB00F061F8FFF7BFFFC0B285
:1003500005B000BD001002400018014070B5002437
:1003600023E000BF4021134800F00EFD0028F9D023
:10037000282003F029F940210E4800F005FD28B996
:10038000C4F1070101208840854305E0C4F107015D
:10039000012088402843C5B200BF4021054800F035
:1003A000F3FC0028F9D1601CC4B2082CD9DB284624
:1003B00070BD00000018014010B5044600F026F89A
:1003C000FFF784FF2070207801281CD1FFF7C6FFBB
:1003D0006070FFF7C3FFA070FFF7C0FFE070FFF78A
:1003E000BDFF2071FFF7BAFF60716078A178084403
:1003F000E1780844217908446179884201D10120DB
:1004000010BD0020FCE74FF0FF30F9E710B500F019
:1004100017F84021094802F02DFB0022402107482F
:1004200000F0BAFC44F6206003F0CEF84021034807
:1004300002F010FB1E2003F0C7F810BD00180140A9
:100440001048006820F080700E4908600846006877
:1004500040F0807008600C48006820F001000A49F4
:1004600008600846006840F001000860002048600D
:1004700000BF00BF00BF0448406808B100207047BB
:100480000120FCE7FCED00E0001000E0704701B542
:1004900002E00098401E009000980028F9D108BDA5
:1004A00070B594B004460D461646012211022E483E
:1004B00000F072FC00F098F802F068F82BA002F04F
:1004C000F1FE4FF4FA6000F047FA02F06BFE2AA04A
:1004D00002F0E8FE00BF2AA002F018FF0028FAD0C0
:1004E00002F060FE28A002F0DDFE00BF24A002F0B2
:1004F0000DFF0028FAD002F055FE324626A16846CC
:1005000002F040FF684602F0CDFE00BF1CA002F0E2
:10051000FDFE0028FAD002F045FE2B46224623A11C
:10052000684602F02FFF684602F0BCFE00BF14A030
:1005300002F0ECFE0028FAD002F034FE21A002F016
:10054000B1FE00BF0EA002F0E1FE0028FAD002F0DA
:1005500029FE20A002F0A6FE00BF09A002F0D6FEF0
:100560000028FAD014B070BD000C014041542B5249
:1005700053540D0A0000000041540D0A0000000011
:100580004F4B0D0A0000000041542B43574D4F4480
:10059000453D310D0A00000041542B43495053544E
:1005A000413D222573220D0A0000000041542B43D7
:1005B000574A41503D222573222C222573220D0AD1
:1005C0000000000041542B4349504D55583D310D1A
:1005D0000A00000041542B4349505345525645529E
:1005E0003D312C38300D0A0010B500224FF4007157
:1005F000064800F0D1FB4FF4FA7000F0ADF901228B
:100600005102024800F0C8FB10BD0000000C014080
:1006100010B50548006800F0010020B10120024932
:10062000086000F0EBF910BD1404014010B5064855
:10063000006800F4005028B14FF4005002490860EF
:1006400000F0DCF910BD0000140401407047000008
:1006500070B50446B3F5804F13D1D1E9000540EAE7
:1006600005108D6840EA05208D6928438D8940EA90
:10067000054054F82250064E3540284344F82200E5
:1006800003E06FF0704044F82200002070BD0000CD
:100690000000F0CF10B50246086852F8200020F0A4
:1006A00001000B6842F823008868082822D14868B6
:1006B00040F040008B681843CB6818430B6918431F
:1006C0004B6918438B691843CB6918430B6A18436D
:1006D0004B6A18438B6A1843CB6A18430B6B184359
:1006E0000B6852F82330144C234018430B6842F82F
:1006F00023001FE0D1E901031843CB6818430B69BD
:1007000018434B6918438B691843CB6918430B6A2C
:1007100018434B6A18438B6A1843CB6A18430B6B18
:1007200018430B6852F82330034C234018430B68DE
:1007300042F82300002010BD8100F7FF10B50346EA
:10074000D1E9000440EA04108C6840EA04208C8956
:1007500040EA0444088A401E44EA0054087D801E92
:1007600044EA00608C692043541C53F8244004F090
:1007700040442043541C43F82400002010BD70B5B1
:1007800006460C46154600BF304602F0BFFD012864
:10079000FAD1002308E000BF01F0EAFA0028FBD0FC
:1007A00002F062FDE8545B1CA342F4DB012070BD43
:1007B00070B50446002594F82100022803D00420D7
:1007C000A0630125C1E02068006820F00E002168C8
:1007D00008602068006820F00100216808605C491A
:1007E0002068884252D95A4978392068884201D114
:1007F000012047E0564964392068884201D1102021
:1008000040E0534950392068884201D1801539E0D1
:100810004F493C392068884201D1801432E04C496C
:1008200028392068884202D14FF480302AE04849B4
:1008300014392068884202D14FF4801022E04449E4
:100840002068884201D140041CE042492068884267
:1008500001D1012016E03F4914312068884201D1BE
:1008600010200FE03B4928312068884201D18015D3
:1008700008E038493C312068884201D1801401E009
:100880004FF480303349091F086051E0304978390E
:100890002068884201D1012047E02D496439206851
:1008A000884201D1102040E029495039206888420F
:1008B00001D1801539E026493C392068884201D1B0
:1008C000801432E0224928392068884202D14FF44E
:1008D00080302AE01E4914392068884202D14FF442
:1008E000801022E01A492068884201D140041CE0AF
:1008F00018492068884201D1012016E015491431B9
:100900002068884201D110200FE012492831206868
:10091000884201D1801508E00E493C3120688842A8
:1009200001D1801401E04FF48030094980394860DA
:10093000012084F8210000BF002084F8200000BFBF
:10094000606B10B12046616B8847284670BD00007F
:10095000800002400804024070B5044600F022FA0C
:1009600006462546681C10B104480078054400BFBF
:1009700000F018FA801BA842FAD370BD34000020A2
:1009800000B585B0002001900290039004901748B4
:10099000006808B105B000BD01201449086000BF1F
:1009A0001348406940F48070114948610846406925
:1009B00000F48070009000BF00BF4FF6807001907F
:1009C000022002900320049001A90A4800F03CF89C
:1009D0004CF6B3700190022002900320049001A90C
:1009E000054800F031F800BFD4E7000020000020E7
:1009F00000100240001801400014014010B50446E8
:100A0000012C0ED10E48007818B100200C49087056
:100A100014E001200A4908704FF4587002F09CFF5E
:100A20000CE0B4F5005F09D10648007818B1002049
:100A30000449087002E001200249087010BD00005E
:100A400010000020180000202DE9F847024600247D
:100A5000002000258446002700237BE14FF0010899
:100A600008FA03F4D1F8008008EA0400A0427DD11E
:100A7000DFF8ECA2D1F80480A8EB0A09D0453AD0FF
:100A800014DCB8F1030F50D009DCB8F1000F31D0FD
:100A9000B8F1010F1CD0B8F1020F49D120E0B8F134
:100AA000110F18D0B8F1120F42D11EE0B9F5881F0E
:100AB00025D006DCB9F5803F20D0B9F5801F37D1AD
:100AC0001AE0B9F5001F18D0B9F5041F30D117E0AE
:100AD000D1F80CC02DE0D1F80C8008F1040C28E00E
:100AE000D1F80C8008F1080C23E0D1F80C8008F153
:100AF0000C0C1EE000BF00BF00BF00BF00BF00BF66
:100B0000D1F80880B8F1000F02D14FF0040C0BE0CF
:100B1000D1F80880B8F1010F03D14FF0080C14612F
:100B200002E04FF0080C546103E04FF0000C00E0CD
:100B300000BF00BFFF2801D8904601E002F1040881
:100B40004646FF2802D84FEA830803E0A3F10808CD
:100B50004FEA88084746D6F800804FF00F0909FA97
:100B600007F928EA09080CFA07F900E07AE048EAF0
:100B70000908C6F80080D1F8048008F08058B8F160
:100B8000805F6FD100BFDFF8DC81D8F8188048F0B3
:100B90000108DFF8D091C9F81880C846D8F8188045
:100BA00008F00108CDF8008000BF00BF4FEAB93857
:100BB0004FEA930958F829504FEA83784FEA187999
:100BC0004FF00F0808FA09F825EA0805DFF89881C0
:100BD000424502D14FF0000824E0DFF89081424501
:100BE00002D14FF001081DE0DFF88481424502D1B7
:100BF0004FF0020816E0DFF87C81424502D14FF049
:100C000003080FE0DFF87081424502D14FF004087D
:100C100008E0DFF86881424502D14FF0050801E0A5
:100C20004FF006084FEA83794FEA197908FA09F874
:100C300048EA0505DFF848814FEA930948F829504A
:100C4000D1F8048008F48038B8F5803F0BD1DFF884
:100C50003481D8F8008048EA0008DFF82891C9F804
:100C600000800AE075E0DFF81C81D8F8008028EAEF
:100C70000008DFF81091C9F80080D1F8048008F46A
:100C80000038B8F5003F0ED1DFF8F88008F104080D
:100C9000D8F8008048EA0008DFF8E89009F1040974
:100CA000C9F800800DE0DFF8DC8008F10408D8F80E
:100CB000008028EA0008DFF8CC9009F10409C9F89F
:100CC0000080D1F8048008F48018B8F5801F0ED198
:100CD000DFF8B08008F10808D8F8008048EA00087A
:100CE000DFF8A09009F10809C9F800800DE0DFF8ED
:100CF000948008F10808D8F8008028EA0008DFF896
:100D0000849009F10809C9F80080D1F8048008F43A
:100D10000018B8F5001F0ED1DFF8688008F10C0844
:100D2000D8F8008048EA0008DFF8589009F10C096B
:100D3000C9F800800DE0DFF84C8008F10C08D8F805
:100D4000008028EA0008DFF83C9009F10C09C9F896
:100D500000805B1C102BFFF481AEBDE8F88700001B
:100D6000000011100010024000080140000C01407A
:100D7000001001400014014000180140001C014017
:100D80000800014000040140024693680B400BB18B
:100D9000012000E0002070470AB1016101E00B046E
:100DA0000361704701480068704700002C00002074
:100DB00003480068034909780844014908607047FE
:100DC0002C0000203400002010B50848006840F0D6
:100DD000100006490860032000F0ACF8002000F085
:100DE00007F800F02BF8002010BD000000200240A2
:100DF00070B504460E4800784FF47A71B1FBF0F0FC
:100E00000C490968B1FBF0F5284600F050FC08B128
:100E1000012070BD102C07D200222146501E00F088
:100E20004BF80548046001E00120F2E70020F0E7FC
:100E300034000020280000203000002008B500BF4A
:100E40001148806940F001000F49886108468069B7
:100E500000F00100009000BF00BF00BF0846C0695D
:100E600040F08050C8610846C06900F08050009092
:100E700000BF00BF00BF0549486820F0E06040F0B7
:100E80000070486000BF08BD001002400000014033
:100E90000146084600280DDB00BF00BF00F01F031D
:100EA00001229A4043099B0003F1E023C3F800218B
:100EB00000BF00BF00BF70472DE9F05F80460D46C0
:100EC0001646002702F072FA074639462A4633468C
:100ED00001F00700C0F1070ABAF1040F02D94FF080
:100EE000040A01E0C0F1070AD14600F1040ABAF190
:100EF000070F02D24FF0000A01E0A0F1030AD44626
:100F00004FF0010A0AFA09FAAAF1010A0AEA020AEA
:100F10000AFA0CFA4FF0010B0BFA0CFBABF1010BC8
:100F20000BEA030B4AEA0B042146404602F046FA5C
:100F3000BDE8F09F00BF00F00702064B19684FF6AE
:100F4000FF031940044B0B4343EA0221014B196094
:100F500000BF70470CED00E00000FA0570B50446D4
:100F60000D4600266D48006800F00700A8420ED22A
:100F70006A48006820F0070028436849086008466E
:100F8000006800F00700A84201D0012070BD207861
:100F900000F0020002281DD1207800F0040004288F
:100FA00005D15F48406840F4E0605D4948602078C2
:100FB00000F00800082805D15948406840F4605006
:100FC000574948605648406820F0F000A16808433F
:100FD00053494860207800F0010000285DD0606827
:100FE000012806D14E48006800F4003090B9012075
:100FF000CCE76068022806D14948006800F000701C
:1010000040B90120C2E74648006800F0020008B974
:101010000120BBE74248406820F0030061680843B4
:101020003F494860FFF7BEFE06466068012810D1C0
:1010300008E0FFF7B7FE801B41F28831884201D9F2
:101040000320A3E73648406800F00C000428F0D1E4
:1010500023E06068022810D108E0FFF7A3FE801BA0
:1010600041F28831884201D903208FE72C4840683B
:1010700000F00C000828F0D10FE008E0FFF792FE26
:10108000801B41F28831884201D903207EE7244841
:10109000406800F00C000028F0D12048006800F003
:1010A0000700A8420ED91D48006820F00700284319
:1010B0001A4908600846006800F00700A84201D0FD
:1010C000012063E7207800F00400042807D11448C9
:1010D000406820F4E060E1680843114948602078E6
:1010E00000F00800082808D10D48406820F460503E
:1010F000216940EAC1000A49486000F03DF808490A
:101100004968C1F30311074A515CC84006490860A9
:101110000020FFF76DFE002038E7000000200240AD
:1011200000100240744800082800002001480068B0
:10113000704700002800002000B5FFF7F7FF0449C2
:101140004968C1F30221034A515CC84000BD000058
:10115000001002408448000800B5FFF7E7FF04498B
:101160004968C1F3C221034A515CC84000BD000078
:101170000010024084480008F0B585B00FF26C0CF6
:101180009CE8E01001A8A0E8E0101CA52D680095DF
:1011900000210022002300240020194D696801F07D
:1011A0000C05F5B1042D02D0082D19D101E0154828
:1011B00019E001ADC1F38346AC5D01F4803555B152
:1011C0000F4D6D68C5F340451DF805200D4D654375
:1011D000B5FBF2F302E00C4D04FB05F3184602E008
:1011E00000BF084800BF00BF05B0F0BD0203040502
:1011F000060708090A0B0C0D0E0F10100102000063
:101200000010024000127A0000093D00F8B50446C3
:101210000025207800F00100002878D0F8484068C8
:1012200000F00C0004280CD0F548406800F00C00D9
:10123000082811D1F248406800F48030B0F5803FB2
:101240000AD1EF48006800F4003000285FD06068E1
:1012500000285CD10120F8BD00BF6068B0F5803F78
:1012600006D1E748006840F48030E549086028E08E
:10127000606858B9E248006820F48030E0490860AE
:101280000846006820F4802008601AE06068B0F525
:10129000A02F0BD1DA48006840F48020D8490860BC
:1012A0000846006840F4803008600AE0D4480068CE
:1012B00020F48030D24908600846006820F480207D
:1012C000086000BF606888B1FFF76CFD054606E066
:1012D000FFF768FD401B642801D90320BBE7C8481D
:1012E000006800F400300028F2D010E0FFF75AFD4B
:1012F000054606E0FFF756FD401B642801D9032090
:10130000A9E7BF48006800F400300028F2D1207837
:1013100000F00200022857D1B948406800F00C00E4
:1013200050B1B748406800F00C00082818D1B44804
:10133000406800F4803098B9B148006800F00200BD
:1013400020B12069012801D0012084E7AC48006861
:1013500020F0F800616940EAC100A949086033E063
:101360002069E8B10120A7490860FFF71BFD054689
:1013700006E0FFF717FD401B022801D903206AE7AA
:101380009F48006800F002000028F2D09C480068E6
:1013900020F0F800616940EAC1009949086013E053
:1013A000002098490860FFF7FDFC054606E0FFF7BE
:1013B000F9FC401B022801D903204CE79048006843
:1013C00000F002000028F2D1207800F00800082880
:1013D0002DD1A069B8B101208B490860FFF7E2FC6C
:1013E000054606E0FFF7DEFC401B022801D903207A
:1013F00031E78348406A00F002000028F2D0012063
:1014000001F0B0F813E000207F490860FFF7CAFC44
:10141000054606E0FFF7C6FC401B022801D9032061
:1014200019E77748406A00F002000028F2D12078DE
:1014300000F00400042873D100267148C06900F050
:10144000805070B900BF6E48C06940F080506C4950
:10145000C8610846C06900F08050009000BF00BF1E
:1014600001266A48006800F48070B0B967480068D7
:1014700040F4807065490860FFF794FC054606E07B
:10148000FFF790FC401B642801D90320E3E65F4886
:10149000006800F480700028F2D000BFE0680128E6
:1014A00006D15748006A40F001005549086227E01C
:1014B000E06858B95248006A20F0010050490862BB
:1014C0000846006A20F00400086219E0E068052878
:1014D0000BD14B48006A40F00400494908620846B5
:1014E000006A40F0010008620AE04548006A20F006
:1014F0000100434908620846006A20F004000862BF
:1015000000BFE068A0B1FFF74DFC054609E0FFF71A
:1015100049FC401B41F28831884202D903209AE6F7
:1015200022E03748006A00F002000028EFD012E005
:10153000FFF738FC054608E0FFF734FC401B41F29A
:101540008831884201D9032085E62D48006A00F0E1
:1015500002000028F0D1012E05D12948C06920F0F1
:1015600080502749C86100BFE069C8B3244840687B
:1015700000F00C00082860D0E069022848D1002063
:1015800020490866FFF70EFC054606E0FFF70AFC57
:10159000401B022801D903205DE61948006800F0CD
:1015A00000700028F2D1206AB0F5803F07D11448BE
:1015B000406820F40030A168084311494860D4E92C
:1015C000080108430E49496821F4741108430C4985
:1015D000486001200B490866FFF7E4FB054607E079
:1015E0002DE0FFF7DFFB401B022801D9032032E684
:1015F0000348006800F000700028F2D01FE00000EF
:10160000001002400000424280044242007000404C
:1016100000200C490866FFF7C5FB054606E0FFF70A
:10162000C1FB401B022801D9032014E606480068CC
:1016300000F000700028F2D101E001200BE600204C
:1016400009E60000000042420010024070B5044666
:101650000E4615460CB9012070BD94F83D0028B91E
:10166000002084F83C00204600F01CF804F108013A
:101670002068FFF70FF83146A2682068FFF75EF890
:101680002946236BD4E90102FEF7E2FFA168206836
:1016900050F8210040F00100A268216841F82200C2
:1016A0000020D9E710B50446FFF76AF910BD70B500
:1016B00004462546681EB0F1807F01D301200FE06B
:1016C000681E4FF0E02148610F214FF0FF3001F01C
:1016D00075FE00204FF0E02188610720086100209E
:1016E00070BD024600BF92F83C00012801D10220E3
:1016F0007047012082F83C0000BF022082F83D00C4
:101700001068406820F070001368586010684068E6
:101710000B681843136858601068806820F08000D8
:1017200013689860106880684B6818431368986065
:10173000012082F83D0000BF002082F83C0000BF7D
:1017400000BFD5E710B504460CB9012010BD94F8D0
:101750003D0028B9002084F83C00204600F00CF839
:10176000022084F83D00211D206801F0F9F90120D4
:1017700084F83D000020E9E708B5124A016891426B
:101780000DD100BF1049896941F400610E4A916191
:101790001146896901F40061009100BF11E00B4A14
:1017A000016891420DD100BF0749C96941F00201AA
:1017B000054AD1611146C96901F00201009100BFDB
:1017C00000BF08BD002C0140001002400004004092
:1017D0000146022081F83D000868006840F00100E1
:1017E0000A681060012081F83D00002070472DE953
:1017F000F04104460D46002600BF94F83C00012845
:1018000002D10220BDE8F081012084F83C0000BF35
:10181000022084F83D002068866826F0770626F4CA
:101820007F4620688660286850283BD00CDC202842
:1018300060D004DC002853D0102865D155E0302852
:101840005DD0402860D141E0602835D070280DD0AF
:10185000B0F5805F03D0B0F5005F55D115E020688A
:10186000806820F00700216888604EE0D5E9021307
:101870006A68206801F0CEF92068866826F077064D
:1018800046F07706206886603FE0D5E902136A6873
:10189000206801F0BFF92068806840F4804021682A
:1018A000886032E0EA686968206801F0B1FA502186
:1018B000206801F0BBF928E0EA686968206801F057
:1018C000BCFA6021206801F0B1F91EE0EA6869689D
:1018D000206801F09DFA4021206801F0A7F914E08A
:1018E0000021206801F0A2F90FE01021206801F02A
:1018F0009DF90AE02021206801F098F905E03021E7
:10190000206801F093F900E000BF00BF012084F8D7
:101910003D0000BF002084F83C0000BF00BF71E71D
:1019200010B586B004460020029003900490059004
:101930000E492068884216D100BF0D48806940F0EA
:1019400004000B4988610846806900F0040001909A
:1019500000BF00BF4020029002200390059002A922
:101960000448FFF771F806B010BD00000004004005
:10197000001002400008014070B504460D461646AE
:1019800000BF94F83C00012801D1022070BD012065
:1019900084F83C0000BF022084F83D0036B1042EDC
:1019A0001BD0082E31D00C2E5ED145E02946206890
:1019B00001F046F92068806940F0080021688861DC
:1019C0002068806920F004002168886120688069AF
:1019D000296908432168886147E02946206801F0A9
:1019E0006BF92068806940F4006021688861206894
:1019F000806920F480602168886120688069296995
:101A000040EA0120216888612FE02946206801F022
:101A100093F92068C06940F008002168C861206817
:101A2000C06920F004002168C8612068C069296984
:101A300008432168C86118E02946206801F0BCF914
:101A40002068C06940F400602168C8612068C069EE
:101A500020F480602168C8612068C069296940EA73
:101A600001202168C86100E000BF00BF012084F8A8
:101A70003D0000BF002084F83C0000BF00BF85E7A8
:101A800010B504460CB9012010BD94F83D0028B9EA
:101A9000002084F83C00204600F00CF8022084F876
:101AA0003D00211D206801F05BF8012084F83D0015
:101AB0000020E9E77047000030B504460D460122DA
:101AC0002946206801F098F80C492068884203D024
:101AD0000B492068884201D1012000E0002028B194
:101AE0002068406C40F40040216848642068006829
:101AF00040F0010021680860002030BD002C01404A
:101B000000340140704700002DE9F047044620688A
:101B100005682068C668206847694FF00008C1461C
:101B200005F00F08B8F1000F0AD105F0200038B118
:101B300006F0200020B1204601F0BFF9BDE8F08793
:101B4000B8F1000F6DD007F0010018B906F49070DD
:101B5000002866D005F0010030B106F4807018B19D
:101B6000E06B40F00100E06305F0040030B107F0E5
:101B7000010018B1E06B40F00200E06305F00200E4
:101B800030B107F0010018B1E06B40F00400E063F1
:101B900005F0080030B107F0010018B1E06B40F02B
:101BA0000800E063E06B68B305F0200028B106F0A0
:101BB000200010B1204601F080F920684069C0F390
:101BC0008019E06B00F0080010B9B9F1000F22D0C5
:101BD000204601F052F92068406900F04000B0B1A1
:101BE0002068406920F0400021684861606B50B176
:101BF0001748616B4863606BFEF7DAFD10B1606BEC
:101C0000416B88470CE02046FFF77CFF08E0204648
:101C1000FFF778FF04E02046FFF774FF0020E06341
:101C20008CE705F0800030B106F0800018B1204646
:101C300001F07AFA82E705F0400030B106F040008A
:101C400018B1204601F029F978E700BF76E70000D7
:101C5000672E000810B504460CB9012010BDA0691C
:101C600000B100E000BF94F8390028B9002084F8E2
:101C70003800204600F028F8242084F83900206835
:101C8000C06820F400502168C860204601F068F95F
:101C90002068006920F4904021680861206840694C
:101CA00020F02A00216848612068C06840F4005094
:101CB0002168C8600020E063202084F8390084F89F
:101CC0003A000020CAE7000010B586B004460020A4
:101CD00002900390049005901E492068884236D1F6
:101CE00000BF1D48C06940F480201B49C8610846F8
:101CF000C06900F48020019000BF00BF00BF08460B
:101D0000806940F0080088610846806900F008009A
:101D1000019000BF00BF081502900220039003202D
:101D2000059002A90D48FEF78FFE4FF40060029067
:101D300000200390049002A90848FEF785FE0022C7
:101D400011462720FFF7B8F82720FFF7A1F806B0C3
:101D500010BD00000048004000100240000C01408F
:101D60007047704700E000E0FDE700BF70470000EB
:101D700007480068006C4030054A1268526C801AAF
:101D800081B2C81701EB90608011A1EB8010704701
:101D90000800002010B5044634B100224FF48051F1
:101DA0000448FEF7F9FF04E0012211030148FEF7A1
:101DB000F3FF10BD001401402DE9F04106460F4627
:101DC00014461D46DDF818802B462246394630461B
:101DD00000F07EF804FB05F0414600F056F8BDE83F
:101DE000F08100002DE9F047804689461546A5F1AF
:101DF000200000F0FF0A102308224946404600F068
:101E000067F82C2000F0BEF9002417E00D4800EB25
:101E10000A10065D00270DE006F0010018B11F2032
:101E200000F0B4F903E04FF6FF7000F0AFF9761060
:101E3000781CC7B2082FEFDB601CC4B2102CE5DBA6
:101E4000BDE8F0878439000870B505460E46144693
:101E500017E028460830F02803DD002506F11000C1
:101E600086B230461030B0F5A07F01DD0025002697
:101E7000227831462846FFF7B5FF641C05F10800BB
:101E800085B220780028E4D170BD10B502460B461B
:101E900000242C2000F076F900BF03E0184600F083
:101EA00075F9641C9442F9D310BD08B50120FFF701
:101EB00071FF00F051F900F037F84FF6FF704FF462
:101EC000A073F022002100900846FFF775FF08BDBF
:101ED00030B504460D462A2000F054F9201200F0D7
:101EE00055F9E0B200F052F9A118491EC1F30F20D4
:101EF00000F04CF9A118491EC8B200F047F92B2098
:101F000000F040F9281200F041F9E8B200F03EF983
:101F1000E918491EC1F30F2000F038F9E918491EED
:101F2000C8B200F033F930BD00B5CF2000F02AF977
:101F3000002000F02BF9812000F028F9302000F07B
:101F400025F9ED2000F01EF9642000F01FF90320B0
:101F500000F01CF9122000F019F9812000F016F9A8
:101F6000E82000F00FF9852000F010F9102000F0B3
:101F70000DF9782000F00AF9CB2000F003F93920A0
:101F800000F004F92C2000F001F9002000F0FEF828
:101F9000342000F0FBF8022000F0F8F8F72000F001
:101FA000F1F8202000F0F2F8EA2000F0EBF8002031
:101FB00000F0ECF8002000F0E9F8B12000F0E2F8C1
:101FC000002000F0E3F81B2000F0E0F8B62000F05D
:101FD000D9F80A2000F0DAF8A22000F0D7F8C020E3
:101FE00000F0D0F8352000F0D1F8C12000F0CAF898
:101FF000112000F0CBF8C52000F0C4F8452000F017
:10200000C5F8452000F0C2F8C72000F0BBF8A220B8
:1020100000F0BCF8F22000F0B5F8002000F0B6F8AF
:10202000262000F0AFF8012000F0B0F8E02000F02A
:10203000A9F80F2000F0AAF8262000F0A7F8242025
:1020400000F0A4F80B2000F0A1F80E2000F09EF89C
:10205000092000F09BF8542000F098F8A82000F028
:1020600095F8462000F092F80C2000F08FF8172029
:1020700000F08CF8092000F089F80F2000F086F8B5
:10208000072000F083F8002000F080F8E12000F045
:1020900079F8002000F07AF8192000F077F81B207A
:1020A00000F074F8042000F071F8102000F06EF8D1
:1020B000072000F06BF82A2000F068F8472000F0B5
:1020C00065F8392000F062F8032000F05FF8062080
:1020D00000F05CF8062000F059F8302000F056F8C7
:1020E000382000F053F80F2000F050F8362000F0B0
:1020F00049F8C82000F04AF82A2000F043F80020F0
:1021000000F044F8002000F041F8002000F03EF814
:10211000EF2000F03BF82B2000F034F8002000F016
:1021200035F8002000F032F8012000F02FF83F20B1
:1021300000F02CF83A2000F025F8552000F026F8A1
:10214000112000F01FF80348FEF7A1F9292000F044
:1021500019F800BDFCBF020010B50022022107489B
:10216000FEF71AFE0648FEF792F901220221034803
:10217000FEF712FE0248FEF78AF910BD0018014072
:10218000FCBF02004FF0C041088070470149088041
:1021900070470000000002602DE9F04707460D4639
:1021A0003846FDF7FFFF80462846FDF7FBFF8146D6
:1021B0000026002400BF00E0641CB85D295D884251
:1021C000FAD1B85D295D884207D101E0761C641C14
:1021D000B85D295D8842F9D006E000264C4502DB57
:1021E000701EBDE8F087E6E7464501D10120F8E71B
:1021F0004FF0FF30F5E7000000B587B01C216846BE
:10220000FDF7B9FF4FF020401A4908601A484860AE
:102210000020886000211748C160016110214161E0
:1022200000218161C161016241624FF4805181628C
:102230000021C1620163416381630F20009001901E
:10224000FF2002900F200390102004901120059091
:1022500000200690002269460648FFF7F7F908B10A
:10226000FEF7F4F90548C06940F480600349C8618D
:1022700007B000BD88010020040100A0000001405B
:1022800000B585B00020019002900390049000BF3B
:102290005848806940F010005649886108468069B6
:1022A00000F01000009000BF00BF00BF084680692A
:1022B00040F0040088610846806900F00400009046
:1022C00000BF00BF00BF0846806940F04000886141
:1022D0000846806900F04000009000BF00BF00BFCA
:1022E0000846806940F0080088610846806900F06F
:1022F0000800009000BF00BF00BF0846806940F0A2
:10230000200088610846806900F02000009000BF2E
:1023100000BF002289143848FEF73EFD00224FF42A
:1023200040713648FEF738FD002202213448FEF79E
:1023300033FD4FF40050019032480290002003908A
:1023400001A93148FEF780FB012001902D48029041
:102350000020039001A92D48FEF776FB1020019084
:1023600000200290039001A92848FEF76DFB4FF46E
:10237000E040019000200290039001A91F48FEF761
:1023800063FB4FF4805001900120029000200390E5
:102390000320049001A91848FEF756FB4FF4407043
:1023A000019001200290002003900320049001A9D5
:1023B0001248FEF749FB0220019001200290002004
:1023C00003900320049001A90D48FEF73DFB002275
:1023D00011460620FEF770FD0620FEF759FD00228B
:1023E00011462820FEF768FD2820FEF751FD05B0B4
:1023F00000BD00000010024000140140000C01402C
:1024000000180140000011100010014000080140B8
:1024100000B587B0002003900490059006900190CD
:10242000029015481549086047204860002113486C
:1024300081604FF6FE71C1600021016141618161DF
:10244000FFF780F908B1FEF701F94FF480500390CF
:1024500003A90A48FFF7CBF908B1FEF7F7F8002007
:102460000190029001A90548FFF73BF908B1FEF77A
:10247000EDF807B000BD0000002C0140C8000020AE
:1024800000B58DB0002009900A900B900C90079039
:1024900008901C216846FDF76EFE20482049086020
:1024A0000020486000211E48816040F63F31C16035
:1024B000002101618161FFF745F908B1FEF7C6F817
:1024C0004FF48050099009A91548FFF790F908B119
:1024D000FEF7BCF81248FFF7D3FA08B1FEF7B6F8DA
:1024E00000200790089007A90D48FFF7FAF808B1F7
:1024F000FEF7ACF86020009032200190002002909E
:102500000490002269460648FFF736FA08B1FEF744
:102510009DF80348FFF704FA0DB000BD0004004029
:102520000801002010B50B480B4908604FF4E1305A
:102530004860002108488160C16001610C2141614F
:1025400000218161C161FFF785FB08B1FEF77EF8CC
:1025500010BD0000004800404801002000BFFEE719
:102560007047704708B508490968C9084FF47A727E
:10257000B1FBF2F14143009100BF00BF00994A1E38
:1025800000920029F9D108BD280000200B480C4911
:1025900008600C480C4908600C480068406940F02D
:1025A00001000A490968486108480068C06840F0AD
:1025B000200006490968C860704700003800002004
:1025C00008000020800000200C00002048010020AE
:1025D000704700002DE9F043DBB006460F469046F9
:1025E0009946639D629C4FF4967110A8FDF7C3FD58
:1025F0005EA13046FDF7DDFD002829D15D48016868
:1026000010A800F0BFFE342103A8FDF7B4FD4B462F
:10261000424659A103A8CDE9004500F0B3FE03A945
:1026200010A8FDF7B3FD60A110A8FDF7AFFD65A1EF
:1026300010A8FDF7ABFD684910A8FDF7A7FD67A13D
:1026400010A8FDF7A3FD394610A800F0FFF885E0BB
:1026500066A13046FDF7ADFD002829D14548016847
:1026600010A800F08FFE342103A8FDF784FD4B462F
:10267000424641A103A8CDE9004500F083FE03A92D
:1026800010A8FDF783FD48A110A8FDF77FFD59A113
:1026900010A8FDF77BFD5C4910A8FDF777FD4FA161
:1026A00010A8FDF773FD394610A800F0CFF855E0EB
:1026B00056A13046FDF77DFD002829D12D4801683F
:1026C00010A800F05FFE342103A8FDF754FD4B462F
:1026D000424629A103A8CDE9004500F053FE03A915
:1026E00010A8FDF753FD30A110A8FDF74FFD49A13B
:1026F00010A8FDF74BFD4D4910A8FDF747FD37A188
:1027000010A8FDF743FD394610A800F09FF825E01A
:102710001848016810A800F035FE342103A8FDF721
:102720002AFD4B46424614A103A8CDE9004500F01E
:1027300029FE03A910A8FDF729FD3DA110A8FDF76A
:1027400025FD414910A8FDF721FD24A110A8FDF7A2
:102750001DFD394610A800F079F800BF4FF47A70DB
:10276000FEF7FAF85BB0BDE8F08300002F66616EFB
:1027700033300000040000203C703E54656D7065ED
:102780007261747572653A2025642E25643C62720C
:102790003E48756D69646974793A2025642E256414
:1027A00025253C2F703E0A003C703E46616E204D50
:1027B0006F64653A204D414E55414C3C62723E0A71
:1027C0000000000046616E2053706565643A203356
:1027D00030253C2F703E0A00244900083C2F626FD0
:1027E00064793E3C2F68746D6C3E00002F66616E0C
:1027F0003630000046616E2053706565643A2036BD
:1028000030253C2F703E0A008C4800082F66616E10
:102810003130300046616E2053706565643A203176
:102820003030253C2F703E0A00000000704900083F
:102830003C703E46616E204D6F64653A20415554B0
:102840004F3C2F703E0A0000D848000870B594B085
:1028500005460C462846FDF7A5FC064600F0A2FCFE
:102860003346224614A1684600F08CFD684600F00D
:1028700019FD00BF15A000F049FD0028FAD0284638
:1028800000F010FD00BF12A000F040FD0028FAD0BB
:1028900000F088FC224610A1684600F073FD6846EF
:1028A00000F000FD00BF11A000F030FD0028FAD0BC
:1028B000012014B070BD000041542B4349505345D2
:1028C0004E443D25642C25640D0A00003E000000A6
:1028D00053454E44204F4B0041542B434950434CE9
:1028E0004F53453D25640D0A000000004F4B0D0A73
:1028F00000000000F0B5A3B006460F4614461D4682
:10290000802103A8FDF737FC00BF02AA01213EA0E9
:10291000FDF735FF0028F8D09DF808003038C0B228
:10292000029000BF03A93AA0FDF77CFC0028F9D073
:1029300003A93AA0FFF730FC012810D13B463246EC
:10294000CDE900459DF8081034A0FFF743FE0120B3
:10295000344908704FF4587000F0FEFF52E003A9AC
:1029600031A0FFF719FC012810D13B463246CDE9D2
:1029700000459DF808102CA0FFF72CFE01202949E6
:1029800008704FF4D86000F0E7FF3BE003A928A0EF
:10299000FFF702FC012810D13B463246CDE9004545
:1029A0009DF8081022A0FFF715FE01201D490870B0
:1029B00040F62C3000F0D0FF24E003A91EA0FFF762
:1029C000EBFB01280CD13B463246CDE900459DF892
:1029D000081019A0FFF7FEFD00201249087011E051
:1029E00003A917A0FFF7D8FB01280BD03B463246BE
:1029F000CDE900459DF8081015A0FFF7EBFD304626
:102A000000F0FAFD23B0F0BD2B4950442C0000002B
:102A100020485454502F312E310000002F66616E33
:102A200033300000100000202F66616E3630000049
:102A30002F66616E313030002F686F6D65000000C9
:102A40002F66617669636F6E2E69636F0000000008
:102A50002F2000007FB505460C4600200090019015
:102A60000290039000940190039069462846FDF778
:102A7000EBFF7FBD7FB505460C460020009001901E
:102A80000290039000940120019002200390694677
:102A90002846FDF7D9FF7FBD10B5FEF789F910BDB7
:102AA00000B58FB0282105A8FDF765FB1421684605
:102AB000FDF761FB012005900004069000200790BF
:102AC0000120099002200C90C1030D914FF4E011F8
:102AD0000E9105A8FEF79AFB08B1FDF7B7FD0F2090
:102AE000009002200190002002904FF4806003903B
:102AF0000020049002216846FEF730FA08B1FDF785
:102B0000A5FD0FB000BD00001148006840F00100B5
:102B10000F490860084640680E4908400C49486063
:102B2000084600680C4908400949086008460068E2
:102B300020F4802008600846406820F4FE004860C9
:102B40004FF41F008860C803044908607047000004
:102B5000001002400000FFF8FFFFF6FE08ED00E065
:102B6000002202681F4B98420ED01F4B98420BD098
:102B7000B0F1804F08D01D4B984205D01C4B9842B5
:102B800002D01C4B984203D122F070024B681A43CA
:102B9000144B98420ED0144B98420BD0B0F1804F9A
:102BA00008D0124B984205D0114B984202D0114BDD
:102BB000984203D122F44072CB681A4322F080027B
:102BC0004B691A4302608B68C3620B688362054BD2
:102BD000984202D0044B984201D10B690363012350
:102BE00043617047002C0140003401400004004064
:102BF00000080040000C004030B50023012404FA16
:102C000001F3046A9C430462046A02FA01F52C434E
:102C1000046230BD30B50C460021816821F47F414B
:102C200042EA032525432943816030BD0A4600213D
:102C3000816821F0700142F00703194381607047F9
:102C400030B5002400220023056A25F00105056245
:102C5000026A4368846924F0700424F003040D6858
:102C60002C4322F002028D682A43114DA84200D164
:102C700003E0104DA84206D100BF22F00802CD6843
:102C80002A4322F004020A4DA84202D0094DA8426C
:102C900007D123F4807323F400734D692B438D69AE
:102CA0002B43436084614D684563026230BD000080
:102CB000002C01400034014030B5002400220023E4
:102CC000056A25F010050562026A4368846924F4E8
:102CD000E04424F440740D6844EA052422F0200204
:102CE0008D6842EA0512124DA84200D103E0114D51
:102CF000A84207D100BF22F08002CD6842EA051247
:102D000022F040020A4DA84202D00A4DA84209D141
:102D100023F4806323F400634D6943EA85038D69DE
:102D200043EA8503436084614D688563026230BD78
:102D3000002C01400034014030B500240022002363
:102D4000056A25F480750562026A4368C46924F047
:102D5000700424F003040D682C4322F400728D6883
:102D600042EA0522124DA84200D103E0114DA842CB
:102D700007D100BF22F40062CD6842EA052222F4A6
:102D800080620B4DA84202D00A4DA84209D123F41B
:102D9000805323F400534D6943EA05138D6943EAD8
:102DA00005134360C4614D68C563026230BD000015
:102DB000002C01400034014030B5002200230024E3
:102DC000056A25F480550562036A4468C26922F4E5
:102DD000E04222F440720D6842EA052223F40053D7
:102DE0008D6843EA0533084DA84202D0074DA8423A
:102DF00004D124F480444D6944EA85144460C261DE
:102E00004D680564036230BD002C01400034014070
:102E100030B50B46144600210022026A056A25F0EF
:102E200001050562816921F0F00141EA041122F0F7
:102E30000A021A438161026230BD30B50B46144666
:102E400000210022056A25F0100505628169026AE9
:102E500021F4704141EA043122F0A00242EA031257
:102E60008161026230BD70B505466C6A0020E08564
:102E7000E0842046FEF746FE70BD0168C96821F473
:102E800090710268D1600168496921F0010102680E
:102E90005161202180F83A10704710B5044620682F
:102EA000C06820F040002168C860202084F8390004
:102EB0002046FEF756FF002010BD70B5044694F87A
:102EC0003A0022284AD1A068B0F5805F13D1A56AE4
:102ED000206940B920684068C0F308002880A06AD3
:102EE000801CA06219E020684068C0B22880A06AF7
:102EF000401CA06211E0206938B920684068C1B266
:102F0000A26A501CA062117007E02068406800F0BF
:102F10007F01A26A501CA0621170E08D401E80B239
:102F2000E085C8B92068C06820F020002168C8602A
:102F30002068C06820F480702168C86020684069FB
:102F400020F0010021684861202084F83A002046E2
:102F5000FEF706FF002070BD0020FCE70220FAE724
:102F60002DE9F041044600252068006920F4405016
:102F7000E1680843216808612169A0680843616924
:102F8000084305432068C06841F20C618843284328
:102F90002168C8602068406920F44070A169084336
:102FA000216848615F49206888425CD1FEF7D4F807
:102FB00000EBC00101EB001061688900B0FBF1F685
:102FC000FEF7CAF800EBC00101EB00106168890050
:102FD000B0FBF1F06421B0FBF1F000EBC00101EBBC
:102FE0000010A6EB8000322101EB00106421B0FB41
:102FF000F1F000F0F006FEF7AFF800EBC00101EBD6
:10300000001061688900B0FBF1F06421B0FBF1F0C1
:1030100006EB0016FEF7A0F800EBC00101EB001074
:1030200061688900B0FBF1F7FEF796F800EBC0018C
:1030300001EB001061688900B0FBF1F06421B0FB86
:10304000F1F000EBC00101EB0010A7EB8000322192
:1030500001EB00106421B0FBF1F000F00F003044F0
:10306000216888605BE0FEF767F800EBC00101EBC8
:10307000001061688900B0FBF1F6FEF75DF800EB27
:10308000C00101EB001061688900B0FBF1F0642120
:10309000B0FBF1F000EBC00101EB0010A6EB8000EB
:1030A000322101EB00106421B0FBF1F000F0F006DA
:1030B000FEF742F800EBC00101EB001061688900E7
:1030C000B0FBF1F06421B0FBF1F006EB0016FEF767
:1030D00033F800EBC00101EB001061688900B0FB20
:1030E000F1F7FEF729F800EBC00101EB0010616871
:1030F0008900B0FBF1F06421B0FBF1F000EBC001FE
:1031000001EB0010A7EB8000322101EB00106421DD
:10311000B0FBF1F000F00F00304421688860BDE89A
:10312000F081000000380140014691F83900212863
:103130002CD18868B0F5805F0FD10A6A1088C0F37F
:1031400008000B685860086918B9086A801C086292
:1031500009E0086A401C086205E00B6A581C086216
:1031600018780B685860C88C401E80B2C88458B963
:103170000868C06820F080000B68D8600868C068E4
:1031800040F040000B68D860002070470220FCE748
:1031900010B5034800F014F80148FEF7B5FC10BD67
:1031A0004801002010B5402104480068FCF7E3FF07
:1031B000002002490968086410BD000008000020D2
:1031C000F0B50446206805682068C66805F0200050
:1031D00068B106F0200050B120680068206840689F
:1031E000C7B215480168384600F0AAFBF0BD05F0EB
:1031F0008000F8B106F08000E0B11048006C0F4983
:10320000496C884206D12068C06820F0800021689F
:10321000C8600EE00949496C084A505C1146496C87
:10322000491C01F03F015164216809682168486028
:1032300000BFDBE700BFD9E70800002080000020C6
:1032400008480068006C07490968496C884202D147
:103250004FF0FF30704703480068406C014909682F
:10326000085CF7E7080000200D480068006C0C4976
:103270000968496C884202D14FF0FF307047084915
:103280000968496C064A1268505C05490968496C2E
:10329000491C01F03F01024A1268516400BFEDE78A
:1032A0000800002010B5044603E014F8010B00F0FC
:1032B00005F820780028F8D110BD000010B50028CE
:1032C0001DDB0F4A1268126C521C02F03F0100BF56
:1032D0000B4A1268526C8A42FAD0094B1B681B6C6D
:1032E000074C2468E054064A12681164054A1268C3
:1032F000D26842F08002034B1B68DA6000BF10BD49
:103300000C0000204801002000BFFEE770B5054614
:1033100000242846FCF746FF064600BF00BFFEF724
:1033200027FD0028FBD008E015480068406C401CD1
:1033300000F03F00124909684864FFF781FF295DEA
:103340008842F1D10BE0641CFFF78EFFB44201D13B
:10335000012070BD00BFFEF70BFD0028FBD0FFF77A
:103360006FFF295D8842EED0B44201D00024D5E73A
:10337000B44201D10120ECE74FF0FF30E9E7000053
:10338000080000200FB4084B10B504A902AA039846
:1033900000F038F8044602A9002000F00FF920469A
:1033A00010BC5DF814FB0000BD3500080248006841
:1033B000C0F30220704700000CED00E010B50028BB
:1033C00004DB0A07130E054A135406E00A07140E1D
:1033D000034A00F00F031B1FD45410BD00E400E0AB
:1033E00018ED00E002E008C8121F08C1002AFAD157
:1033F00070477047002001E001C1121F002AFBD175
:10340000704700002DE9FF4F8BB09A460F460546E6
:10341000002606E025280BD052460D9990476D1CDA
:10342000761C28780028F5D10FB03046BDE8F08F23
:103430000024A0460122604900E0044315F8013F42
:10344000203B02FA03F00842F7D128782E2817D142
:1034500015F8010F44F004042A280ED06FF02F0253
:103460002878A0F1300109290AD808EB880102EB7D
:10347000410100EB01086D1CF2E757F8048B6D1C4D
:10348000287869283ED006DC0028CDD063280BD0F0
:10349000642804D136E0732810D075284BD05246EA
:1034A0000D999047761C85E017F8040B8DF8000005
:1034B00000208DF80100E946012003E057F8049B45
:1034C0004FF0FF3061074FF0000401D40AE0641CA4
:1034D00044450DDA8442FADB19F804100029F6D1CC
:1034E00006E0641C8442FCDB19F804100029F8D1C2
:1034F000264404E019F8010B52460D999047641ECA
:10350000F8D257E001CF4FF00A0B002802DA404210
:103510002D2102E0210504D52B218DF82410012155
:1035200003E0E10705D02021F7E70DF1200908911C
:103530000CE00021F9E701CF4FF00A0BF9E75946FB
:10354000FCF745FE01F1300209F8012D0028F6D103
:10355000ADEB090000F1200B600701D44FF001082A
:10356000D84502DDA8EB0B0000E0002080460024D7
:1035700006E009A85246005D0D999047641C761C30
:1035800008988442F5DB04E0302052460D999047BC
:10359000761CB8F10001A8F10108F5DC05E019F886
:1035A000010B52460D999047761CBBF10001ABF11F
:1035B000010BF4DC6D1C34E7092801000A68531C78
:1035C0000B6010707047000031B509484468FDF782
:1035D000ADFD0849B0FBF1F000994843009000BFF1
:1035E00003484068001B00998842F9D338BD0000A9
:1035F000001000E040420F0010B50446192C03D221
:10360000322000F0A9F915E0192C06D31B2C04D2A6
:103610004FF4587000F0A0F90CE01B2C06D31E2CC0
:1036200004D24FF4D86000F097F903E040F62C3054
:1036300000F092F910BD0000A0B0FDF7C5FBFFF748
:103640002FFAFEF71DFEFEF7D7FDFEF7E1FEFEF7AF
:1036500017FFFEF767FFFEF728FC70A2002108465F
:10366000FEF7F2FB7148FEF7B3F800217048FEF751
:1036700023FAFCF74DFE4FF47A70FDF76DF96DA259
:103680006FA173A0FCF70CFF4FF6FF704FF4A0730F
:10369000F022002100900846FEF78EFBBCE0704847
:1036A0000078002878D01EA8FCF786FE01281FD1DC
:1036B0006CA200210846FEF7C7FB9DF87C309DF800
:1036C0007B206CA10EA8FFF75DFE0EAA182100203A
:1036D000FEF7BAFB9DF87A309DF879206BA10EA811
:1036E000FFF750FE0EAA30210020FEF7ADFB0AE0E6
:1036F0009DF878206AA10EA8FFF744FE0EAA0021CB
:103700000846FEF7A1FB6A48007848B99DF87B009F
:10371000FFF772FF67A248210020FEF795FB39E012
:1037200010216848FDF730FB044624B16648006864
:10373000401C65490860644800680321B0FBF1F251
:1037400001FB120020B101280BD002281BD111E08F
:103750004FF4587000F000F95CA101A8FFF712FEC9
:1037600011E04FF4D86000F0F7F85EA101A8FFF770
:1037700009FE08E040F62C3000F0EEF85FA101A849
:10378000FFF700FE00BF00BF01AA48210020FEF79E
:103790005BFB00BF21E0FFE75EA200210846FEF7C9
:1037A00053FB1EA8FCF708FE012811D19DF87A30C2
:1037B0009DF879209DF87C109DF87B00FFF79AF822
:1037C0003B48007848B99DF87B00FFF715FF04E0FF
:1037D00054A218210020FEF737FB564856A1026874
:1037E0001BA8FFF7CFFD1BAAC8210020FEF72CFB6A
:1037F00050480068401C4F49086040F6B830FDF75B
:10380000ABF84FF6FF704FF4A073F0220021009048
:103810000846FEF7D1FA00BF41E70000496E69741F
:1038200069616C697A696E672E2E2E00C8000020CF
:10383000080100203139322E3136382E312E340035
:10384000636865636B62756666616C6F000000009B
:1038500042756666616C6F2D472D3735310000006B
:103860001800002044485431312052656164696E6B
:1038700067733A0054656D70657261747572653A6C
:103880002025642E256420430000000048756D69E2
:10389000646974793A2025642E256420252500006A
:1038A0004448543131204572726F723A20256400C9
:1038B0001000002046616E204D6F64653A09415545
:1038C000544F0000000801401400002046616E20A3
:1038D0004D6F64653A094D414E55414C20333025BA
:1038E0002500000046616E204D6F64653A094D4128
:1038F0004E55414C203630252500000046616E2093
:103900004D6F64653A094D414E55414C2031303080
:103910002525000057656220536572766572204D3B
:103920006F6465004448543131204572726F7221D2
:10393000000000001C00002069203D2025640000DC
:103940000B6C5B1C03F03F024B6C934202D00B6C80
:10395000C8540A647047000010B588B0044660205F
:1039600001900294002003900590002201A90448D0
:10397000FEF702F800210248FEF79EF808B010BDDD
:10398000080100200000000000000000000000000E
:1039900000000000000000183C3C3C1818001818FB
:1039A00000000000000000666666000000000000E5
:1039B000000000000000006C6CFE6C6C6CFE6C6C17
:1039C000000000000018183C66060C183060663CC9
:1039D0001818000000000E1B5B6E30180C76DAD849
:1039E000700000000000001C36361C06F66666DC1F
:1039F000000000000000001818180000000000007F
:103A0000000000000000003018180C0C0C0C0C1802
:103A1000183000000000000C18183030303030181A
:103A2000180C000000000000006C38FE386C00002C
:103A300000000000000000000018187E18180000A8
:103A40000000000000000000000000000000383806
:103A500030180000000000000000007E00000000A0
:103A600000000000000000000000000000003838E6
:103A7000000000000000006060303018180C0C06D8
:103A80000600000000000078CCECECCCDCDCCC784C
:103A90000000000000000030383E30303030303060
:103AA000000000000000003C66666030180C067ED6
:103AB000000000000000003C666660386066663CFE
:103AC000000000000000000C0C6C6C6C66FE606076
:103AD000000000000000007E0606063E6060301E0A
:103AE0000000000000000038180C3E666666663C68
:103AF000000000000000007E60303018180C0C0C34
:103B0000000000000000003C66666E3C7666663C85
:103B1000000000000000003C666666667C30181CF1
:103B200000000000000000000038380000003838B5
:103B300000000000000000000038380000003838A5
:103B4000301800000000006030180C060C183060BF
:103B5000000000000000000000007E007E00000069
:103B600000000000000000060C18306030180C0641
:103B7000000000000000003C6666301818001818AD
:103B8000000000000000007EC3C3F3DBDBF303FE94
:103B900000000000000000183C6666667E666666EF
:103BA000000000000000003E6666663E6666663EF7
:103BB000000000000000003C666606060666663CE3
:103BC000000000000000001E366666666666361E4F
:103BD000000000000000007E0606063E0606067E87
:103BE000000000000000007E0606063E06060606EF
:103BF000000000000000003C666606067666667CF3
:103C000000000000000000666666667E6666666606
:103C1000000000000000003C181818181818183C84
:103C20000000000000000060606060606066663C4C
:103C300000000000000000666636361E36366666F6
:103C40000000000000000006060606060606067EC6
:103C500000000000000000C6C6EED6D6D6C6C6C616
:103C600000000000000000C6C6CEDEF6E6C6C6C6EE
:103C7000000000000000003C666666666666663C02
:103C8000000000000000003E6666663E060606066E
:103C9000000000000000003C666666666666663CE2
:103CA000306000000000003E6666663E366666666E
:103CB000000000000000003C66060C183060663C06
:103CC000000000000000007E1818181818181818B6
:103CD0000000000000000066666666666666663C78
:103CE00000000000000000666666666666663C18B6
:103CF00000000000000000C6C6C6D6D6D66C6C6CAC
:103D00000000000000000066662C18183466666625
:103D100000000000000000666666663C181818186F
:103D2000000000000000007E606030180C06067E77
:103D3000000000000000003C0C0C0C0C0C0C0C0CE7
:103D40000C0C3C0000000006060C0C18183030600B
:103D5000600000000000003C303030303030303047
:103D600030303C0000183C660000000000000000FD
:103D70000000000000000000000000000000000043
:103D80000000FF00001C18300000000000000000D0
:103D90000000000000000000003C60607C66667C63
:103DA0000000000000000006063E66666666663E8D
:103DB0000000000000000000003C66060606663CAD
:103DC0000000000000000060607C66666666667C3D
:103DD0000000000000000000003C66667E06063C15
:103DE00000000000000000780C0C0C7E0C0C0C0C89
:103DF0000000000000000000007C66666666667CCD
:103E000060603E0000000006063E66666666666606
:103E10000000000000001818001E18181818187E5E
:103E20000000000000003030003C303030303030D6
:103E300030301E0000000006066666361E366666D6
:103E4000000000000000001E181818181818187E2E
:103E50000000000000000000007ED6D6D6D6D6C6F0
:103E60000000000000000000003E666666666666B0
:103E70000000000000000000003C66666666663CCC
:103E80000000000000000000003E66666666663EB8
:103E90000606060000000000007C66666666667C1A
:103EA00060606000000000000066760E06060606F0
:103EB0000000000000000000007C06063C60603E40
:103EC000000000000000000C0C7E0C0C0C0C0C78A8
:103ED0000000000000000000006666666666667C02
:103EE00000000000000000000066666666663C1880
:103EF000000000000000000000C6D6D6D6D66C6CCC
:103F000000000000000000000066663C183C666689
:103F10000000000000000000006666666666663C01
:103F200030180F0000000000007E6030180C067E84
:103F300000000000000000301818180C060C1818BB
:103F40001830000000000018181818181818181851
:103F5000181818000000000C1818183060301818D5
:103F6000180C00000000008EDB7100000000000053
:103F70000000000000000000000000000000000041
:103F80000000000000000000000000000000000031
:103F90000000000000000000000000000000000021
:103FA0000000000000000000000000000000000011
:103FB0000000000000000000000000000000000001
:103FC00000000000000000000000000000000000F1
:103FD00000000000000000000000000001000000E0
:103FE00000000000000000000000000000000000D1
:103FF00000000000000000000000000001000000C0
:1040000001000000010000000100000001000000AC
:10401000010000000100000001000000010000009C
:10402000010000000100000000000000000000008E
:104030000000000000000000000000000000000080
:10404000010000000000000000000000000000006F
:10405000010000000000000000000000010000005E
:104060000000000000000000000000000000000050
:10407000010000000000000000000000000000003F
:10408000000000000100000000000000000000002F
:104090000000000000000000000000000000000020
:1040A000000000000100000000000000010000000E
:1040B00000000000000000000000000001000000FF
:1040C00000000000000000000000000000000000F0
:1040D00001000000000000000000000000000000DF
:1040E00000000000010000000000000000000000CF
:1040F00000000000000000000000000000000000C0
:1041000000000000000000000100000000000000AE
:10411000000000000000000000000000010000009E
:10412000000000000000000000000000000000008F
:10413000010000000000000000000000000000007E
:10414000000000000100000000000000000000006E
:10415000000000000000000000000000000000005F
:10416000000000000100000001000000000000004D
:10417000000000000000000000000000010000003E
:10418000000000000000000000000000000000002F
:10419000010000000000000000000000000000001E
:1041A000000000000100000000000000000000000E
:1041B00000000000000000000000000000000000FF
:1041C00001000000000000000100000000000000ED
:1041D00000000000000000000000000001000000DE
:1041E00000000000000000000000000000000000CF
:1041F00001000000000000000000000000000000BE
:1042000000000000010000000000000000000000AD
:10421000000000000000000000000000010000009D
:10422000000000000000000001000000000000008D
:10423000000000000000000000000000010000007D
:10424000010000000100000001000000010000006A
:10425000010000000100000001000000010000005A
:10426000010000000100000000000000000000004C
:10427000000000000000000001000000000000003D
:10428000000000000000000001000000000000002D
:10429000000000000000000000000000010000001D
:1042A000000000000000000000000000000000000E
:1042B00001000000000000000000000000000000FD
:1042C00000000000010000000000000000000000ED
:1042D00000000000000000000000000000000000DE
:1042E00000000000000000000100000000000000CD
:1042F00000000000010000000000000001000000BC
:1043000000000000000000000000000000000000AD
:10431000010000000000000000000000000000009C
:10432000000000000100000000000000000000008C
:10433000000000000000000000000000000000007D
:10434000000000000000000001000000000000006C
:10435000010000000000000000000000010000005B
:10436000000000000000000000000000000000004D
:10437000010000000000000000000000000000003C
:10438000000000000100000000000000000000002C
:10439000000000000000000000000000000000001D
:1043A000000000000000000001000000010000000B
:1043B00000000000000000000000000001000000FC
:1043C00000000000000000000000000000000000ED
:1043D00001000000000000000000000000000000DC
:1043E00000000000010000000000000000000000CC
:1043F00000000000000000000000000000000000BD
:1044000000000000000000000100000000000000AB
:10441000000000000000000000000000010000009B
:10442000000000000000000000000000000000008C
:10443000010000000000000000000000000000007B
:10444000000000000100000000000000000000006B
:10445000000000000000000000000000000000005C
:10446000000000000100000001000000000000004A
:10447000000000000000000000000000010000003B
:104480000100000001000000010000000100000028
:104490000100000001000000010000000100000018
:1044A000010000000100000000000000000000000A
:1044B00000000000000000000000000000000000FC
:1044C00001000000000000000100000000000000EA
:1044D00000000000000000000000000000000000DC
:1044E00000000000000000000000000000000000CC
:1044F00001000000000000000000000000000000BB
:1045000000000000000000000000000000000000AB
:10451000000000000000000000000000010000009A
:10452000000000000000000001000000000000008A
:10453000000000000000000000000000000000007B
:10454000000000000000000000000000000000006B
:10455000010000000000000000000000000000005A
:10456000000000000000000000000000000000004B
:10457000000000000000000001000000000000003A
:10458000000000000000000001000000000000002A
:10459000000000000000000000000000000000001B
:1045A000000000000000000000000000000000000B
:1045B00001000000000000000000000000000000FA
:1045C00000000000000000000000000000000000EB
:1045D00000000000000000000000000000000000DB
:1045E00000000000000000000100000000000000CA
:1045F00000000000000000000000000000000000BB
:1046000001000000010000000100000001000000A6
:104610000100000001000000010000000100000096
:104620000100000000000000000000000000000089
:10463000000000000000000000000000000000007A
:104640000000000000000000010000000000000069
:10465000000000000000000000000000000000005A
:10466000000000000000000000000000000000004A
:104670000100000000000000000000000000000039
:10468000000000000000000000000000000000002A
:10469000000000000000000000000000000000001A
:1046A0000000000000000000010000000000000009
:1046B00000000000000000000000000000000000FA
:1046C00000000000000000000000000000000000EA
:1046D00001000000000000000000000000000000D9
:1046E00000000000000000000000000000000000CA
:1046F00000000000000000000100000000000000B9
:1047000000000000000000000100000000000000A8
:104710000000000000000000000000000000000099
:104720000000000000000000000000000000000089
:104730000100000000000000000000000000000078
:104740000000000000000000000000000000000069
:104750000000000000000000000000000100000058
:104760000000000000000000010000000000000048
:104770000000000000000000000000000000000039
:104780000000000000000000000000000000000029
:104790000100000000000000000000000000000018
:1047A0000000000000000000000000000000000009
:1047B00000000000000000000000000000000000F9
:1047C00001000000010000000000000000000000E7
:1047D00000000000000000000100000001000000D7
:1047E00001000000010000000100000001000000C5
:1047F00001000000010000000100000001000000B5
:1048000001000000010000000100000000000000A5
:104810000000000000000000000000000000000098
:104820000000000000000000000000000000000088
:104830000000000000000000000000000000000078
:104840000000000000000000000000000000000068
:104850000000000000000000000000000000000058
:104860000000000000000000000000000000000048
:10487000000000000000000000000000010203042E
:104880000607080900000000010203043C666F727D
:104890006D20616374696F6E3D2266616E313030E8
:1048A000223E3C696E70757420747970653D227388
:1048B00075626D6974222076616C75653D223130B8
:1048C00030252046616E205370656564223E3C2F82
:1048D000666F726D3E0A00003C666F726D20616308
:1048E00074696F6E3D2266616E3330223E3C696EA4
:1048F00070757420747970653D227375626D69748A
:10490000222076616C75653D223330252046616E2C
:10491000205370656564223E3C2F666F726D3E0ABF
:10492000000000003C666F726D20616374696F6EF9
:104930003D2266616E3630223E3C696E7075742091
:10494000747970653D227375626D69742220766199
:104950006C75653D223630252046616E20537065AA
:104960006564223E3C2F666F726D3E0A00000000B7
:104970003C666F726D20616374696F6E3D222F68B3
:104980006F6D65223E3C696E707574207479706538
:104990003D227375626D6974222076616C75653D88
:1049A0002246616E204175746F223E3C2F666F7205
:1049B0006D3E0A003C21444F4354595045206874D1
:1049C0006D6C3E0A09093C68746D6C3E0A09093C2D
:1049D000626F64793E0A09093C68313E53544D3395
:1049E00032204553503832363620536D6172742070
:1049F000486F6D65205365727665723C2F68313E55
:104A00000A09093C703E44485431312052656164C2
:104A1000696E67733A203C2F703E0A003C4A0008DA
:104A20000000002038000000E4330008744A000849
:104A30003800002098050000F43300080000000052
:104A4000B449000800000000000000000000000061
:104A50000000000001000000000000000000000055
:104A60000000000000A24A04000000001000000046
:044A70000100000041
:0400000508000131BD
:00000001FF
